:02000002D0002C
:1040000000400D00D8E10D00000006000D00050184
:084010000401FD08000000009E
:044018003CCC0D008F
:1040200009480A49884208B505D0094A824202D0A7
:10403000121A06F04AFE0748074A0021121A06F033
:1040400052FE014808BD00BFDCDC0320CCDF0D00C0
:10405000C0DE0320C0DE0320EDE7032070B5074E6D
:10406000074C05F061FEA41BA4080025A54200D161
:1040700070BD56F8043B98470135F7E79CDF0D000B
:10408000C0DF0D0000F01EBC08B500F097F9BDE8D8
:10409000084005F001BE03F0E5BF03F0E3BF03F005
:1040A000E9BF000008B5034A00210C2003F0FEFE22
:1040B000FEE700BF8D7B0D000078B0FA80F040096C
:1040C00070470123037070477047037C13F00803A7
:1040D0001EBFC36A406A1B1A002BACBF18466FF0A4
:1040E0000040704703681847012A03D0022A03D012
:1040F000002070470160FBE70B680360F8E770473A
:1041000010B51021044605F0F9FE204610BD10B58B
:104110003421044605F0F2FE204610BD014801F0AE
:104120003FBE00BFD0DE0320103002F007BC436961
:1041300013B183690C301847704713B5002104464A
:10414000084603F0D3FC0023204601A9019303F0A5
:10415000E5FC019C0CB1012323710021012003F037
:10416000C5FC2CB1236820469B6898470023237127
:1041700002B010BD103002F057BB103002F072BA1E
:1041800007B501220DF10701103002F0BDF9012839
:104190000CBF9DF807004FF0FF3003B05DF804FB43
:1041A00013B5054B1B788DF800303C23044604F012
:1041B00047FA204602B010BDCCDE032007B501222D
:1041C0008DF8071010300DF1070102F0B7FB03B0B6
:1041D0005DF804FB0EB403B503AB002153F8042BC8
:1041E000019304F0A4FE02B05DF804EB03B0704745
:1041F00073B5044608462279A36832B1A3B90B49C6
:1042000002B0BDE8704004F065BD094A267B094D47
:104210000949647B012E18BF2946CDE900140749DE
:10422000FFF7D8FF02B070BD054AEFE761CC0D0083
:10423000F4DC0D005DCC0D0059CC0D0077CC0D00E9
:1042400050CC0D0010B58368044613B1032201461B
:104250009847204610BD07B58068002338B1CDE9E6
:104260000013022103F062FCB0FA80F0400903B0B1
:104270005DF804FB38B5104B036083680446A3B1B6
:104280006FF000410022FFF7E6FFA068002103F075
:104290006DFC237903F0FF0513B103F01FFCF8E771
:1042A000A068294603F032FCA56004F10C00FFF77A
:1042B000C9FF204638BD00BFE4CE0D0010B504464E
:1042C000FFF7D8FF20461C2105F018FE204610BD40
:1042D00038B5054600F17004AC4204D0103C2046CD
:1042E00004F090FFF8E7204638BD70B505460E464D
:1042F000002431192819103405F00FF8702CF8D16A
:10430000284670BDFDEEC07AD0B517EE904A642302
:1043100094FBF3F4634307EE903AF8EEE77A70EE1D
:10432000677A17EE900A05F055FF0A4B002206F057
:10433000D3F8064620460F4605F03AFF02460B46E4
:104340003046394605F0E8FD06F094FA00EE100A12
:10435000D0BD00BF00004E4038B5046805467CB1B2
:104360006368013B63605BB9236820469B6898479C
:10437000A368013BA3601BB923682046DB6898470C
:10438000284638BD13B50B4C2178BFF35B8F11F075
:1043900001010BD120460191FFF78EFE019928B152
:1043A000054804F001FE2046FFF78BFE024802B0EC
:1043B00010BD00BFC0DE0320C4DE032070B5E4B032
:1043C000CD4936A8FFF791FF36A90EA801F0B0FF3E
:1043D00036A8FFF77DFF0EA801F032FF60B305F0AD
:1043E000BBFBC64904F089FC05F0B6FBC44904F0E8
:1043F00084FC05F0B1FBC34904F06CFC05F0ACFB98
:104400000A221899044604F082FC204604F069FC54
:1044100005F0A2FBBC4904F05DFC05F09DFB199979
:104420000A22044604F073FC204604F05AFC05F00E
:1044300093FBB64904F061FCAF491AA8FFF755FF9A
:104440001AA936A801F096FF1AA8FFF741FF36A86F
:1044500001F00CFF002800F0AC8105F07DFBAC49B9
:1044600004F04BFC05F078FBA54904F046FC05F090
:1044700073FBA84904F02EFC05F06EFB409904F094
:104480003CFC05F069FBA44904F024FC05F064FB46
:10449000449904F032FC05F05FFBA04904F01AFCDB
:1044A00005F05AFB489904F028FC05F055FB9C499F
:1044B00004F010FC05F050FB4C9904F01EFC05F0D4
:1044C0004BFB984904F006FC05F046FB509904F0BC
:1044D00014FC05F041FB944904F0FCFB05F03CFBA7
:1044E0000A229DF85011044604F011FC204604F005
:1044F000F8FB05F031FB8D4904F0ECFB05F02CFBDB
:104500000A229DF85111044604F001FC204604F0F3
:10451000E8FB05F021FB8649864C04F0DBFB05F047
:104520001BFB9DED550A022104F0F2FC05F014FB83
:10453000814904F0CFFB05F00FFB9DED560A0221E7
:1045400004F0CCFC05F008FB7C4904F0C3FB05F04B
:1045500003FB579904F0D1FB05F0FEFA784904F00B
:10456000B9FB05F0F9FA9DED5B0A022104F0B6FCF7
:1045700005F0F2FA714904F0ADFB05F0EDFA5C9933
:1045800004F0BBFB05F0E8FA6E4904F0A3FB05F06C
:10459000E3FA609904F0B1FB05F0DEFA5B4904F040
:1045A000ACFB69491AA803F00FFE204601F080F821
:1045B0000121204600F0FDFE00264FF00113C4E962
:1045C000046362490AA804F068FE0A229DF85011AB
:1045D00006A804F0D8FE06A90AA804F03FFF5C492B
:1045E00004F048FF5B4904F045FF05461AA803F0B4
:1045F00059FEFDEEC07A284617EE901A04F04FFFE0
:10460000554904F037FF0168204604F076FB06A800
:1046100004F0F8FD0AA804F0F5FD4FF4202323610F
:104620004E4906A804F039FE48A902A804F075FE18
:1046300002A906A804F012FF404904F01BFF05463A
:1046400044A804F0E1FFFFF75DFE06210AA804F08C
:10465000ACFE0AA9284604F001FF0168204604F0D8
:104660004CFB0AA804F0CEFD02A804F0CBFD06A87E
:1046700004F0C8FD4FF4A0132361394906A804F0E3
:104680000CFE50A902A804F048FE02A906A804F0F6
:10469000E5FE2A4904F0EEFE05464CA804F0B4FFFE
:1046A000FFF730FE06210AA804F07FFE0AA928467B
:1046B00004F0D4FE0168204604F01FFB0AA804F0B1
:1046C000A1FD02A804F09EFD06A804F09BFD204673
:1046D00001F05AFA05F00DF9224B23491B680093AB
:1046E0000246C31702A805F0A5F8FFF74BFE3146B6
:1046F00004F075FC3AE000BFD0DE032094CC0D003E
:10470000AFCC0D00E6CC0D00F3CC0D00F4DC0D00B9
:1047100004CD0D0035CD0D0040CD0D004BCD0D006D
:1047200062CD0D006ECD0D0083CD0D009CCD0D0032
:10473000AECD0D00F8DF0320D1CD0D000CCE0D0065
:10474000DCCD0D00F1CD0D004CE5032006CE0D00B3
:104750000BCE0D000ECE0D0018CE0D001ACE0D00A2
:104760001FCE0D00E4DC0320B0E503209DF850319E
:10477000E3B103F01BFA484B1B68C01A474B1B6898
:10478000984213D3464A474912680968464844F29A
:10479000022302F086F8002839D105F0DDF94349FB
:1047A00004F0ABFA03F002FA3B4B186002A804F0E5
:1047B00029FD4FF47A7003F0ADFC3D4B369360A8B1
:1047C00004F020FD5CA804F01DFD57A804F01AFDBC
:1047D00050A804F017FD4CA804F014FD48A804F0FC
:1047E00011FD44A804F00EFD40A804F00BFD3CA808
:1047F00004F008FD37A804F005FD2E4B0E9314A815
:1048000004F000FD0FA804F0FDFC64B070BD02A927
:1048100006A804F082FD284906A804F02BFE48A94A
:1048200004F01CFE254904F025FE044644A804F0CB
:10483000EBFEFFF767FD204604F03BFE1E4904F047
:1048400019FE50A904F00AFE1C4904F013FE0446A8
:104850004CA804F0D9FEFFF755FD204604F029FED0
:10486000154904F007FE04461AA803F01BFD204674
:1048700004F01FFE01460AA804F04FFD0A991048F3
:1048800004F03BFA0AA804F0BDFC06A804F0BAFC48
:10489000054801F0FFFF85E768E00320B0E0032052
:1048A000E8DF03203CE503207CE0032025CE0D005B
:1048B00080DA0D008CDA0D004BCE0D000CCE0D0011
:1048C0006CE00320F0B54FF4FA6087B05B4C5C4DB0
:1048D00003F020FC05F040F94FF4165105F030F9D3
:1048E00005F03AF9574904F008FA204603F0C4F8F5
:1048F000204600F0DDFE204601F046F90121204669
:1049000000F057FD00264FF00113C4E904634D4940
:10491000204604F0F2F9204601F036F94A484FF4F7
:10492000165101F003FA284632463146FFF793FC50
:10493000A868254640B16FF00043009301963346C6
:104940003246314603F0F2F8FFF71CFD002104F077
:1049500046FB3E4A3E493F4C02A8FFF721FC03A814
:10496000FFF7FAFC3C4B029300238DF80C3004F562
:104970008C673A4B0493012602AB052204F26C418A
:104980003846ADF8146002F01DFE002836D02760CE
:1049900004F23C4001F07EFF3146204602F0C0FCAC
:1049A00004F23C46014620B32A4901F23C4001F0A2
:1049B00092FD18B394F83C3413F0700F1ED0284BBE
:1049C000284A29491E6002A8FFF7EAFB03A8FFF75F
:1049D000C3FC4FF4202325492B61184804F08DF9BE
:1049E000164801F0D1F84FF47A7003F093FB07B04A
:1049F000F0BD204602F094FC0028D5D11C4A1A498B
:104A000002A8FFF7CDFB03A8FFF7A6FC4FF47A70CE
:104A100003F080FB174A184902A8FFF7C1FB03A85F
:104A2000FFF79AFC4FF4202314492B61034804F04C
:104A300064F9024801F0A8F8D9E700BFF8DF0320C5
:104A4000CCDF03204DCE0D00D0DE03205DCE0D0067
:104A50006ACE0D00B4E00320D0CE0D0080F0FA0243
:104A60003CE5032094CE0D0077CE0D0085CE0D00E1
:104A7000BACE0D0097CE0D00A7CE0D00ADCE0D0025
:104A800070B54B4B002488B01C7004F0E1FF014668
:104A9000484801F034F9484B049304AD474B484A69
:104AA0001A6095E8030003F10C0202AE86E80300E9
:104AB00092E8030085E8030096E8030082E803001B
:104AC000404A5A619A6907923F4A1C719C609A61F8
:104AD00003F108003D4A06940121CDE9004403F0AA
:104AE0000DF82846FFF7AEFB0721394802F096FF84
:104AF0003849084603F036FA3649284604F00DFCDA
:104B00003549284604F0B6FC064604F02FFF01465E
:104B1000304604F0C4FC064604F020FF014630464F
:104B200004F0BDFC064604F00DFF0146304604F0DB
:104B3000B6FC064604F0EEFE0146304604F0AFFC3B
:104B4000064604F0F3FE0146304604F0A8FC234973
:104B500004F090FC0146224804F0DFFB2846214D7A
:104B600004F050FB642385F860341F4BC5F87034A3
:104B7000012385F87434EC71A5F83C4485F86A4447
:104B8000C5F87844A5F87C44FFF7FCFB174A1849A0
:104B900011604FF47A73936014825460154AC5F81B
:104BA0006C0412685343144A136008B070BD00BF10
:104BB000CCDE0320D0DE03201D410D00CCDF03201E
:104BC000E4CE0D00E9400D00E5400D003B410D0035
:104BD000F8DF0320A0E00320C1CE0D00C3CE0D00FE
:104BE000E8DF0320B4E00320D0CE0D006CE003200A
:104BF000F8CE0D00DCDC0320B0E003202DE9F04FFF
:104C000085B01F46BDF93880BDF83C30A8EB0209DD
:104C1000A7EB010AB9F1000FB8BFC9F10009BAF159
:104C2000000FB8BFCAF1000AD14583460C461546AD
:104C300004DD3A462C4647460D469046BC4205DD0B
:104C40002A464546904622463C4617463E1BB2B28F
:104C50000092A8EB0502002AB8BF52420192C6F3A7
:104C6000C03202FA86F64545B4BF01224FF0FF324A
:104C700076100292BC421CDCDBF800200393D14585
:104C8000D2F81880C7BF294622462A4621465846F0
:104C9000C047019A039BB61AB1B236B2002E05DAAC
:104CA000029A1544009A56182DB236B2013424B235
:104CB000E0E705B0BDE8F08F704710B404682469E0
:104CC000A4465DF8044B604730B40468BDF8085052
:104CD0000295A46BA44630BC604730B40468BDF8AC
:104CE00008500295E46BA44630BC604770B4BDF92F
:104CF0000C50BDF810600468CDE90356246CA4463E
:104D000070BC60472DE9F3411C460368BDF8208064
:104D10005B6905461646013C34440F4624B2984769
:104D20002B68CDF8048000949C6A28463B463246A6
:104D30003946A0472B68DB6A284602B0BDE8F0413F
:104D400018472DE9F3411D460368BDF820805B69D3
:104D5000044617460E469847CDE9007822686B1E38
:104D60003344956A20461BB23A463146A847236829
:104D7000DB6A204602B0BDE8F04118472DE9F34751
:104D80001E460368BDF928905B69BDF82C800C466F
:104D90000546174698472644B4422B680BDACDF8EF
:104DA0000080D3F820A021464B463A4628460134DD
:104DB000D04724B2F0E7DB6A284602B0BDE8F047EE
:104DC000184713B502680191B0F90E100091146CE8
:104DD000B0F90C3000221146A04702B010BD2DE9F9
:104DE000F3471D460368BDF82C805B69BDF9289028
:104DF00004460F46164698472368CDF80080D3F83E
:104E000024A032462B4639462046D0472368CDF8A9
:104E1000008009F1FF323244D3F824A039462B46F2
:104E2000204612B2D0472368CDF80080D3F820A0E6
:104E300032464B4639462046D0476B1ED919236867
:104E4000CDF800801D6A20464B46324609B2A8477D
:104E50002368DB6A204602B0BDE8F0471847704778
:104E60002DE9F74399421646BDF92870BDF82C90FC
:104E7000026880460D461C4613D1BE42C8BF334669
:104E8000CDF82890C4BF3E461F467B1C946B9B1BED
:104E90001BB2324629464046A44603B0BDE8F04363
:104EA0006047BE420AD19942C2BF0B4625461C4606
:104EB000631CCDF82890D46B5B1BE9E753699847D6
:104EC000CDE90079D8F8003040469F6A3246234643
:104ED0002946B847D8F80030DB6A404603B0BDE841
:104EE000F043184701F00303B0F90A208376C9079D
:104EF000B0F9083059BF8381C2818281C381704774
:104F000030B54281C281074A074D01810024818169
:104F10004FF0FF31C0E90512446005600461047779
:104F2000046230BD0101000120D40D002DE9F04FD5
:104F300089B0CDE902120268BDF948800493BDF939
:104F40004C3052690593BDF850A00446904718F1C3
:104F500007024FF0000648BF08F10E024FEAE20BCD
:104F600001963546039B019ABDF904109A18059BDA
:104F70008B4212B227DD049B33444FF000090693A5
:104F80000FFA89F080451FFA89F117DD4F0705BF39
:104F9000069BC0106D001D5C18BFEDB22B060AD534
:104FA000029B206807921944836909B21F46204674
:104FB0005346B847079A09F10109E1E7019B01331C
:104FC00001935E44CEE72368DB6A204609B0BDE862
:104FD000F04F18472DE9F04F2DED028B91B016469A
:104FE000026ABDF874809DF878509DF87C4003916A
:104FF0001F46BDF8703004938346002A40F0C580F8
:10500000B0F90C308B4240F34C81B0F90E30B34212
:1050100040F34781062313FB0513002B40F3418126
:1050200006EBC403002B40F33C81037F1BB9AF2F79
:1050300084BF0137FFB2DBF8003058465B69984700
:105040000522099200220592984A07EB8703D3189C
:105050000C93B3B20693059A0C9B9B5C0793ABB27F
:105060000B93BDF80C300893039B02FB05F919FA6A
:1050700083F90FFA89F308EE103A08230A93039B89
:1050800002EB030A4FF000090FFA8AFA079ADBF8DD
:105090000030D20752D5012D1FFA89F23ED1012CE2
:1050A0003CD19B6906991F46049B0A4412B25146A3
:1050B0005846B84709F101034FFA83F9079B5B088B
:1050C00007930A9B013B13F0FF030A93DED1059F70
:1050D00001377BB20593099B013B13F0FF03099352
:1050E000B9D1049B43450FD0012DDBF800303BD1F3
:1050F000012C39D10899CDF8008005311C6A32465F
:10510000082309B25846A047DBF80030DB6A58464E
:1051100011B0BDEC028BBDE8F04F1847069914FBA7
:1051200002F20A44049901910094DB6918EE101A06
:105130001F4612B22B465846B847BBE7049A424571
:10514000B8D0012D1FFA89F207D1012C05D19B6936
:1051500006991F460A444346A8E70699CDF80480FD
:1051600014FB02F20A44DFE70B9ACDF8048002EB4D
:105170008201089AE4000A4411460094DC69324630
:105180002B4609B25846A047BEE7137A5168126809
:105190000D92FF1AFFB201EBC70331F837200692D8
:1051A0009A780992DA780B92012D93F9052093F9F8
:1051B00006A00A9201D8012C57D9BDF928300893CE
:1051C0000FFA8AF30793DBF8003058465B6998477B
:1051D000B3B24FF000080E931AFA86F3C146474661
:1051E0000F930B9B9F428FD2079B0E9A3B4403FB6E
:1051F0000423002205920F9A1BB202EB070A08EE65
:10520000103A0FFA8AFA4346099A0599914241D217
:105210005A1CD2B25B070C9207D1069B06990D9AD5
:1052200001339BB212F80190069319F0800F12D04F
:10523000012DDBF80030BDF80C101AD1012C18D16B
:105240000A9A9B691144059A11441E465246049BD2
:1052500009B25846B047059E0136F3B24FEA4909F4
:1052600005935FFA89F90C9BCEE70023CDE907335C
:10527000A9E70598089A024402FB0511049ACDE9B2
:105280000042DB6918EE102A1E4609B22B4658462A
:10529000B047E0E7099B013798445FFA88F8FFB20E
:1052A0009FE711B0BDEC028BBDE8F08F18CF0D0069
:1052B000F0B5026A85B004460B46002A34D10A29AB
:1052C00008D1438A0282427E03EBC203638201203B
:1052D00005B0F0BD0D29FAD0E17E007E657E71B18A
:1052E000B4F91060062111FB0061B4F90C60B14201
:1052F000C1BFB4F91210228201EBC5026282E28AB8
:105300000192A28A0092CDE90205B4F91220B4F903
:1053100010102046FFF75EFE237E228A03EB430334
:1053200002EB43032382D2E70A2907D10023038239
:10533000937A417E428A01FB0323C7E70D29C6D039
:10534000157AA942C3D3517A9942C0D351685D1BE3
:10535000EDB201EBC505AF782FB3E97819B3E17E63
:10536000007E667E91B195F905103944B4F910704C
:1053700000FB0171B4F90C70B94207DD00272782E8
:10538000B4F91210927A02FB06126282E28A01924A
:10539000A28A0092CDE90206B4F91220B4F91010E5
:1053A0002046FFF717FE2979237E228A01FB03237B
:1053B000B8E7012938BF0121017641767047000026
:1053C00010B5044B03600446C06A08B102F052FEF7
:1053D000204610BD18D90D0010B50446FFF7F0FFA8
:1053E0002046502104F08AFD204610BD002910B54A
:1053F0004BDBB0F90C408C4247DD002A45DBB0F9AD
:105400000E40944241DD847E022C1FD0032C26D016
:10541000012C04D10489D24314440A4621B2012B41
:1054200023D0022B32D083BB002A13460489C06AE2
:10543000B8BFD31DDB1013FB041102F007020123D8
:105440009340425C22EA030242541EE00489C943AD
:1054500021444489D243224409B212B2DFE744898D
:10546000C9430C44114622B2D9E7002A04891346E5
:10547000B8BFD31DDB1013FB0411C36A02F0070091
:1054800001228240585C02435A5410BD002A134640
:105490000489C06AB8BFD31DDB1013FB041102F0EE
:1054A0000702012303FA02F2435C5A40CCE710B52D
:1054B000044690F93600012180B204F0B6FC606A1F
:1054C00018B1BDE8104003F09DBD10BD70B5044695
:1054D0001D460026FFF714FD114B2360666215B9C7
:1054E00004F0E8FC0546FF2384F8333084F83630B6
:1054F0009DF9103084F837300A4BA363012384F8F8
:105500003C30059BA3644FF6FF72069BA286C4E95C
:105510000A562664A4F84460E364204670BD00BFC8
:1055200018D90D00D0CE0D00F8B50446806A0D469E
:1055300090B194F9301003F083FAA06A0368002157
:105540009B689847A06A036829469B689847A06AA9
:10555000BDE8F84003F07BBA94F93530014698B2C3
:1055600004F063FC606A20B12946BDE8F84003F00E
:10557000D1BD0826802794F9330005EA070180B2DF
:1055800004F053FC94F93400012180B204F04DFC86
:1055900094F93400002180B204F047FC013E4FEA48
:1055A0005707E8D1F8BD38B50446806A0D4680B18A
:1055B000A16C03F037FA002D204614BFA721A621C5
:1055C000FFF7B2FFA06A88B1E16CBDE8384003F094
:1055D00029BA606A18B104F1380103F02DFD94F97D
:1055E0003600002180B204F020FCE4E72046BDE84C
:1055F0003840FFF75CBF2DE9F8430446806A0D464A
:105600008F1840B394F9301003F01AFAA06A0368B7
:1056100000219B6898470126BD42A06A17D01F2E23
:105620000CD903F014FA94F93010A06A03F008FAC8
:10563000A06A036800219B6898470126A06A15F8B4
:10564000011B036801369B689847F6B2E4E7BDE8A2
:10565000F84303F0FCB994F93530014698B204F0F0
:10566000E4FBAF4222D0606A15F8019B18B14946AD
:1056700003F050FDF5E708264FF0800894F9330059
:1056800009EA080180B204F0D0FB94F9340001214A
:1056900080B204F0CAFB94F93400002180B204F017
:1056A000C4FB013E4FEA5808E8D1DAE7BDE8F883C9
:1056B000B0F90A30DA1D48BF03F10E02B0F9083024
:1056C000C06AD2105A43002105F00DBB2DE9FF41FD
:1056D0001E46C36A9DF8288004460F461546B3B19E
:1056E0002046FFF7E5FFB4F90A00B4F908102028B6
:1056F0001FDC20230122CDE90132203873237339C6
:10570000009300EBD070894B01EBD1711FE0B0F931
:105710000A30D81D48BF03F10E00B4F90830C0109C
:10572000584302F09FFCE0620028D9D104B0BDE8E4
:10573000F08140234FF0010CCDE9013C5223403869
:10574000523900937A4B00EBD07001EBD17140F3EA
:105750004F0241F34F012046FFF7E8FBA06A84F8AF
:105760003170002878D0002D74D1B4F90A30202B84
:105770000CBF3C253D2584F83050B8F1000F01D016
:1057800003F054F9FEB194F9370000281BDB012126
:1057900080B204F039FB94F93700012180B204F0A3
:1057A00044FB012002F0B6FC94F93700002180B2DE
:1057B00004F03BFB0A2002F0ADFC94F93700012114
:1057C00080B204F032FBA06A002874D0A16C03F010
:1057D00029F9042257492046FFF70DFFA17A013924
:1057E000C9B22046FFF7A0FE534904222046FFF726
:1057F00002FF94F93130012B0CBF102114212046F7
:10580000FFF792FE04224D492046FFF7F4FEA368FD
:105810004B4A93425CD14B4904222046FFF7EBFEF2
:10582000D9212046FFF780FE94F93130012B0CBFBF
:105830002221F1212046FFF777FE20464249062229
:10584000FFF7D9FEA06A002863D0E16C03F0EAF804
:1058500001206BE76DB28EE794F93500012180B22B
:1058600004F0D2FA94F93600012180B204F0CCFAA7
:1058700094F93600012180B204F0D7FA656A3DB18F
:10588000B8F1000F3FF47EAF284603F097FB79E7AD
:1058900094F93300012180B204F0B6FA94F934008F
:1058A000012180B204F0B0FA94F93400294680B2A4
:1058B00004F0BBFA66E7606A18B104F1380103F03E
:1058C000BBFB94F93600002180B204F0AEFA80E709
:1058D0001E4A93420ED11E4903222046FFF78BFE3B
:1058E00094F93130012B0CBF9F21CF212046FFF7C7
:1058F0001BFE95E7174A934292D11749032220468F
:10590000FFF779FE94F93130012B0CBF1021AF2144
:10591000ECE794F93600012180B204F086FA606A5F
:10592000002895D003F06EFB92E700BF30D70D0042
:1059300070D40D0078D90D007CD90D0080D90D00F0
:10594000800020008AD90D0084D90D00800040001D
:105950008ED90D006000100091D90D0070B5002A9D
:10596000BDF810503DDBB0F90A40944239DD002902
:10597000BEBF5B181BB20021B0F90840CE18A6428A
:10598000C4BF631A1BB2002B2BDDC06AD61014FBF8
:105990000611014402F0070001228240012DD2B21B
:1059A00016D0022D0BD0E5B9D243D2B20B449942A6
:1059B00017D011F8010B104001F8010CF7E70B4468
:1059C00099420ED011F8010B504001F8010CF7E795
:1059D0000B44994205D011F8010B104301F8010C5A
:1059E000F7E770BDF0B50029BDF8146076DBB0F9BB
:1059F0000850A94272DA002ABCBFD21813B2B0F91B
:105A00000A40B8BF0022D718A742C4BFA31A1BB2CE
:105A1000002B63DDC2F3C404C76A15FB041112F046
:105A20000702DBB207EB010423D0C2F10802D2B2B5
:105A30002C4D93423CBF4FF0FF0CA2EB030EAD5C2C
:105A40003CBF4CFA0EFC0CEA0505012E07D0022ED5
:105A50002ED04EB917F801C02CEA050503E017F85F
:105A600001C045EA0C057D54934237D3B0F90810C4
:105A70000C449A1AD2B2072A0ED9022E1DD113460F
:105A80002178C9432170083BB0F90810DBB2072B1D
:105A90000C44F5D802F0070202B3134B012E9B5CB5
:105AA00019D0022E1BD0CEB9227822EA030314E0CB
:105AB00017F801C085EA0C05D5E7002E14BFFF25B5
:105AC000002513462570083BB0F90810DBB2072B00
:105AD0000C44F7D8DEE7227813432370F0BD227818
:105AE0005340FAE768D90D0070D90D0070B4144620
:105AF000827EBDF80C60022A0DD0032A18D0012A3C
:105B000011D10289E443144424B203960A46214683
:105B100070BCFFF767BF42890589E4431944144408
:105B2000691A24B209B20396224670BCFFF716BF69
:105B300045891944691A09B2E7E730B41446827EF0
:105B4000BDF80850022A0DD0032A18D0012A11D11D
:105B5000E2180489A41A24B202950A46214630BCF0
:105B6000FFF7FCBE0289C9431144E2184489A41A14
:105B700009B224B20295224630BCFFF733BF4289F6
:105B8000C943114409B2E7E72DE9F8430446806AA6
:105B9000002842D0A16C02F045FF4749052220466B
:105BA000FFF729FD217A01392046C9B2FFF7BCFC75
:105BB000B4F90A30DE1D48BF03F10E06D4E90A0528
:105BC0002389F61013FB06F615FA86F600283AD05C
:105BD00094F9301002F034FFA06A036840219B68FA
:105BE00098470127B542A06A24D01F2F0CD902F094
:105BF0002EFF94F93010A06A02F022FFA06A036819
:105C000040219B6898470127A06A15F8011B03688B
:105C100001379B689847FFB2E4E7606A18B104F166
:105C2000380103F009FA94F93600002180B204F03B
:105C3000FCF8B2E702F00BFFA06A78B3E16CBDE8B4
:105C4000F84302F0EFBE94F93500012180B204F070
:105C5000ECF8B542F0D0606A15F8019B18B14946DE
:105C600003F058FAF5E708274FF0800894F933005D
:105C700009EA080180B204F0D8F894F9340001214F
:105C800080B204F0D2F894F93400002180B204F01C
:105C9000CCF8013F4FEA5808E8D1DAE794F936002A
:105CA000012180B204F0C1F8606A18B1BDE8F84380
:105CB00003F0A8B9BDE8F88394D90D0000210A22A9
:105CC000C0E900127047002310B50446C17183710A
:105CD00088B204F0C3F808B10323A37101F066FF92
:105CE000206010BD38B50C4605461146A0B204F040
:105CF0008BF821462846BDE83840FFF7E4BF38B5A9
:105D000004460D4600F01CFA0023C4F8F430256761
:105D100084F8F830204638BD08B5006F02F0EDFF7A
:105D2000BDE80840FA2002F0F5B9000010B50446BD
:105D3000006F03F089FE206F036801211B6A9847FA
:105D400020460C49FFF7E8FF20460B49FFF7E4FF28
:105D500020460A49FFF7E0FF20460949FFF7DCFF2C
:105D600020460849FFF7D8FF20460749BDE8104004
:105D7000FFF7D2BF99D90D00AAD90D00BBD90D00EC
:105D8000D4D90D0006DA0D0014DA0D0000231946EF
:105D9000C2180133802B82F87410F9D170470000CB
:105DA00070B50446006F036888B01B699847E8B176
:105DB000206F03685B69984794F8F830C0B223B944
:105DC000242804BF012384F8F83094F8F8306BB12C
:105DD000D4F8F430802B0BDD03F0BEFE204902F036
:105DE0008CFF0023C4F8F43084F8F83008B070BD9C
:105DF000D4F8F4300D28234408D1002283F874200D
:105E0000D4F8F4300133C4F8F430EFE70A2824D191
:105E1000002683F8746004F17401684603F03DFACB
:105E2000694604A803F079FA04A9204600F09AF91B
:105E3000054604A803F0E6F928B2694604EB001011
:105E400003F05CFAC4F8F460204684F8F860FFF7C9
:105E50009DFF684603F0D6F9C8E783F87400CFE7E2
:105E600023DA0D002DE9FF4104460F4604F1140822
:105E70000E4915461E4603F010FA0C49404603F041
:105E80000CFA3946204603F039FA06EB0511257461
:105E9000684603F042FA6946404603F049FA68460C
:105EA00003F0B0F9204604B0BDE8F081F4DC0D0049
:105EB000F0B585B01949054600F11406684603F0AF
:105EC000ECF96946304603F06EFB0446684603F081
:105ED00099F9EB69E1B28F1C9F421DD80131304620
:105EE00003F02BFB39460446304603F026FBA4F1B1
:105EF0003103DBB2152B9CBF094AD35CA0F1310002
:105F000088BF00231A01C3B2152B9ABF0449C85C8D
:105F10000020104405B0F0BD0020FBE734DA0D008E
:105F200038DA0D00F0B585B0104900F114070646C7
:105F3000684603F0B2F96946384603F0ECFA0446C5
:105F4000684603F05FF974B101250024F369033B4F
:105F50009D4208D22946384603F0EFFA0135444005
:105F6000A4B2EDB2F2E7204605B0F0BD36DA0D007E
:105F700038B501460546143003F0CDFA48B128463D
:105F8000FFF796FF04462846FFF7CCFF231A584236
:105F9000584138BD10B586B00446019102A80849A1
:105FA00003F07BF9019A02A904F1140003F0C7FA87
:105FB000044602A803F026F9204606B010BD00BF33
:105FC0004BCE0D001FB50131143003F0B6FA014677
:105FD000684603F0C7F90649684603F074FA0446B8
:105FE000684603F00FF9201E18BF012004B010BD51
:105FF0004BCE0D007FB50023136006461546FFF714
:10600000C9FF431C044604D14FF0FF34204604B0BE
:1060100070BD01463046FFF7D5FF0028F4D10134AA
:10602000224606F11401684603F0E2FA684603F0DE
:10603000E6FA2860684603F0E5F8E7E77FB5002355
:10604000137006461546FFF7A5FF431C044604D10E
:106050004FF0FF34204604B070BD01463046FFF7D4
:10606000B1FF0028F4D10134224606F1140168463C
:1060700003F0BEFA684603F0C2FA2870684603F0DF
:10608000C1F8E7E77FB50023136006461546FFF722
:1060900081FF431C044604D14FF0FF34204604B076
:1060A00070BD01463046FFF78DFF0028F4D1013462
:1060B000224606F11401684603F09AFA684603F096
:1060C000A3FA684685ED000A03F09CF8E6E70000B5
:1060D0002DE9FF4198460C46054618496846164684
:1060E00003F0DBF86946404603F022F9684603F006
:1060F00089F821462846FFF74DFF431C044605D189
:106100004FF0FF37384604B0BDE8F081014628461D
:10611000FFF758FF0028F3D1671C013633193A46C0
:1061200005F11401684603F043FA6946404603F05E
:10613000FFF8684603F066F8E4E700BFF4DC0D0002
:10614000F8B5074F0446054600F170062846394663
:10615000103503F0A2F8AE42F8D12046F8BD00BFDA
:10616000F4DC0D0030B585B00C4668462E4903F0CE
:1061700094F86946204603F0CEF90546684603F0D8
:1061800041F8002D46D12949684603F086F8694652
:10619000204603F0C0F90546684603F033F8002DA9
:1061A0003AD12349684603F078F86946204603F05F
:1061B000B2F90546684603F025F87DBB1D496846DF
:1061C00003F06BF86946204603F0A5F905466846DA
:1061D00003F018F825BB1849684603F05EF86946D5
:1061E000204603F098F90546684603F00BF8CDB950
:1061F0001249684603F051F86946204603F08BF9CE
:106200000446684602F0FEFF002C18BF0624204614
:1062100005B030BD0124FAE70224F8E70324F6E7CD
:106220000424F4E70524F2E74EDA0D0055DA0D00F8
:106230005CDA0D0063DA0D006ADA0D0071DA0D0028
:1062400070B5061D04463046FFF792FE054658B16C
:1062500004F1280200213046FFF7CCFE04F12C02A5
:1062600001463046FFF7C6FE284670BD70B5051DD5
:1062700004462846FFF77CFE0646002855D004F168
:1062800028030A2200212846FFF722FF04F13803E1
:10629000014609222846FFF71BFF04F14803014687
:1062A00001222846FFF714FF04F1580301460A2291
:1062B0002846FFF70DFF04F1680301460122284636
:1062C000FFF706FF04F1780201462846FFF7B6FE05
:1062D00004F1790201462846FFF7B0FE04F17C0282
:1062E00001462846FFF7CEFE04F18002014628460B
:1062F000FFF7C8FE04F18403014601222846FFF798
:10630000E7FE04F1940201462846FFF7BBFE04F1C4
:106310009803014601222846FFF7DAFE04F1A8039C
:10632000014601222846FFF7D3FE304670BD00002B
:1063300030B5A1B004460D4668460C4902F0ADFFE9
:10634000294604A8FDF7D1FF04AB06226946201DAB
:10635000FFF788FD04A8FDF7BBFF684602F052FF77
:10636000034B2360204621B030BD00BF71DA0D0021
:106370008CDA0D0030B5A1B004460D4668462049C0
:1063800002F08BFF294604A8FDF7AFFF012204AB02
:106390006946201DFFF766FD04A8FDF799FF6846D2
:1063A000184D02F02FFF2046174B40F8283B294696
:1063B00002F073FF294604F1380002F06EFF29460F
:1063C00004F1480002F069FF294604F1580002F088
:1063D00064FF294604F1680002F05FFF294604F1DA
:1063E000840002F05AFF294604F1980002F055FF9C
:1063F000294604F1A80002F050FF204621B030BD2C
:106400004EDA0D00F4DC0D0080DA0D0010B5044604
:10641000243000F077FE28B104F50C70BDE8104080
:1064200000F070BE10BD8378016943F004038370EF
:1064300000F11002806800F01BBF00002DE9F04160
:10644000017811F02005044603D000263046BDE84F
:10645000F0814269174B9A42F7D2FFF7E4FF0646F4
:106460000028F2D02169A06800F097FE0746A068D6
:1064700005223946243000F06DFE80460028E4D025
:1064800029464FF4007204F02EFC0125A3681A7906
:10649000AA4209D918684246E91901F0C4F900284E
:1064A000D3D00135EDB2F1E7636903EB42236361B9
:1064B000CCE700BF00FE1F0010B5044680680A4606
:1064C0002430A16900F046FE20B1A38803F00F0339
:1064D00000EB431010BD70B5047805460E464CB96C
:1064E0002422214604F0FFFBAE60F379102B03D089
:1064F000202B07D0002004E0202301242B70AC7057
:10650000204670BD4023F8E72DE9F74F0378044695
:1065100088461546002B5DD08278D1075AD51A07D8
:106520002DD5C36942699B1A9D4228BF1D462E4640
:106530004FF0000904F1100B002E00F08F8022783C
:106540006369A0689706C3F3080A4FEA53211FD571
:10655000006A0144A068BAF1000F42D1B6F5007F8D
:106560003FD3C36A99423CD0B6F5806F52D20068DF
:10657000424601F0CFF868B34FF4007744E09B0641
:10658000D5D583681A894369C3EB42139BB2CBE725
:1065900090F8059009EA0109BAF1000F08D1B9F1A4
:1065A000000F05D15BB951064CBF036A236A236112
:1065B0002169A06800F0F1FD09EB0001CAE721693B
:1065C0005A4600F0F0FD002804DBF1D1237813F0E7
:1065D000700F43D1637843F0020363704FF0FF30D4
:1065E0003DE0CAF50077B7424FF0000200F1240009
:1065F00028BF374600F0AEFD0028EBD000EB0A01C3
:106600003A46404604F061FB63693B44B844636129
:10661000F61B91E7227892064FEA562A06D40279B1
:10662000A2EB0902D2B2924528BF924699424FEAA4
:106630004A2708D2A06853460068424601F0B2F8E3
:106640000028E1D1C6E753448B42F3D924300191AD
:1066500000F058FD01990028ECD1BBE7A81B03B05E
:10666000BDE8F08F73B501220DF10701D0E90456A2
:106670000446FFF749FF01280ABF9DF807004FF0C5
:10668000FF30C4E9045602B070BD37B5436913F456
:10669000F07F0446C3F3431500D099B901220DF1F0
:1066A00007012046FFF730FF40B2012802D000204A
:1066B00003B030BD63691F33A0686361303000EB05
:1066C0004510F5E72033F7E72DE9F0410278076937
:1066D00004460D4662B14069884202D019B9216171
:1066E0006561012006E0160706D5E3698B420BD2EF
:1066F00027610020BDE8F081910605D5A3681B89BC
:10670000B5EB431FECD9F3E7D4F808C09CF806605A
:10671000431E06F109016E1ECB40CE40B34200D8A5
:1067200098B953064CBFDCF82030236A236104F18A
:106730001008002ED4D02169A068424600F033FD35
:10674000002806F1FF36F4DCD2E7F61AEFE7F8B5D9
:106750000F4616460021242204461D4604F0C3FAC3
:10676000B868A060A68000F1300206F00F063B6A10
:10677000E360710102EB4616F37A1F0746D4431813
:1067800093F83B3003F017032370F27A12F0180FDE
:1067900004BF43F0080323709DF81830E37005F040
:1067A0000303012B2CD0022B28D07BBB6A052DD4F0
:1067B0000123A370A278930704D52378DF0625D49C
:1067C000DE0723D4AB1123F07F0305F00806334323
:1067D0001343A370C36AA3614318B3F84420B3F80A
:1067E0004A1041EA02416A0513D559B9A37843F02A
:1067F0000403A3706B0410D40120F8BD0323D8E771
:106800000223D6E700F06FFD0028EFD100202070B2
:10681000F3E72162DB6CE361ECE7E1692046FFF717
:1068200053FF0028E8D1F1E738B5037804460BB9E7
:10683000012038BD83785A0723D50121FFF73CFE9C
:10684000054628B9637843F0010363700020F0E740
:106850000378E52BF6D023781B0744BFE369C361B7
:10686000238C4383638C8382094B1B682BB100F11B
:106870001601183098472B8B6B82A37823F0040302
:10688000A370A068FFF7C2FD0028DBD0D0E700BFEF
:1068900038E5032010B50446FFF7C6FF0023237038
:1068A00010BDF0B593B01F460023ADF82430037837
:1068B000019206460C4613B1002013B0F0BD0B78D0
:1068C00013F0700FF8D013782F2B12D1019A137890
:1068D0002F2B02D101320192F8E7A1681BB9304693
:1068E000FFF7F9FDE9E709A8FFF7F5FD0028E3D078
:1068F00009AC019801AA03A900F0F6F80028DBD042
:10690000019B1B789BB1002303AA2146304600F06F
:106910001FFA0028D0D035460FCD09AC0FC40FCDDB
:106920000FC42B6823603046FFF7B4FFE0E73B4617
:1069300003AA2146304600F00BFABEE72DE9F047E6
:10694000037889461907044617465BD583789A076A
:1069500058D51B0751D46369DB43BB4252D3B846B9
:1069600004F1100A6669B8F1000F00F09180A06888
:106970004379C6F3080513EA56260ED16DB921698D
:10698000002946D0524600F00EFC00283ADB04D124
:106990002046FFF748FD002834D02169A06800F0A8
:1069A000FCFB3118A06815B9B8F5007F3FD2C5F5DA
:1069B0000076464528BF4646002D36D16269E36918
:1069C0009A4234BF01220522243000F0C3FBC8B133
:1069D000284432464946354404F077F9B5F5007F3E
:1069E00004D1A068243000F08DFB58B163693344B2
:1069F0006361B144A8EB0608B4E7C169FFF764FE20
:106A00000028A8D1637843F0010363704FF0FF3092
:106A100050E0236A3BB92046FFF705FD0028F1D07E
:106A200023692362B9E72361B7E70122CCE7B8F510
:106A3000806FC26A1BD390F804C0ACEB0606F3B2B9
:106A40004FEA582E734528BF734691424FEA4326BA
:106A500007D31A448A4282BF4FF0FF3280F8245095
:106A6000C262A5684A46286800F053FFBDE791421C
:106A700002BF4FF0FF3380F82450C362A3684A4638
:106A8000186800F0D0FE0028BCD04FF40076ADE7C7
:106A9000E269A378B24204D2E66143F00403A37032
:106AA00003E0084A1268002AF7D194F90230002B5B
:106AB00002DB3846BDE8F0872046FFF7B5FE002828
:106AC000F7D19FE738E50320411E00F10A030020BB
:106AD000420842EAC01011F8012F52FA80F08B42AE
:106AE000C0B2F5D1704700002DE9F047064610F816
:106AF000013B202BFAD06B4D8E600024335DC3B177
:106B00002F2B16D05C2B02D10020BDE8F087A3F11B
:106B10002200C0B21D2803D825FA00F0C007F3D424
:106B200003F0BF003C28EFD0203B5E2BECD80134B3
:106B3000E4E733191846074610F8015B202DFAD018
:106B40002F2DF8D017604CB113F8012D2E2A01D04B
:106B5000202A01D1013CF6E7FF2CD5DC4C6001F185
:106B60000D0301F11802202003F8010B9342FBD121
:106B70004FF0000816F808302E2B01D0202B02D140
:106B800008F10108F6E7B8FA88F04009651E6B1CA9
:106B900002D0735D2E2B14D14FF0000907274A460F
:106BA000CA464FF0080EA04569DA16F80830202BC7
:106BB00003D02E2B07D1A84512D0002008F10108E0
:106BC000F1E7013DE3E7222B08D07C2B06D0A3F1AF
:106BD0002A0CBCF1050F0BD82D2B13D0A8455CD186
:106BE0000A2F4BD0A8460A2708224FF0100EE5E7DF
:106BF000A3F13A0CBCF1050FF0D9A3F15B0CBCF189
:106C0000020FEBD9A3F1210CBCF15D0FE6D8A8452A
:106C1000E6D0BA4230D8A3F1610CBCF1190F1AD8F2
:106C2000203B4EEA0909DBB25FFA89F902F1010C57
:106C30005FFA8CFC0A44BCF1060F537301D881F84B
:106C40000CC06246BAE7A84518DCA8460A27082205
:106C50004FF0100EB1E7A3F1410CBCF1190F98BF32
:106C60004EEA0A0AE2E70B7B0120087019447E23F2
:106C70004B7331238B7348E70A2FE4D100204B7B01
:106C8000202B3FF441AF0028EDD01AEA090F18BFBE
:106C90004FF0020981F8009037E7BA42ECD85F2341
:106CA0000020C3E7010100312DE9F84391F80C9071
:106CB00006460C4602257E2701F10D086168A26890
:106CC0006B189BB21144914206D012F8010B03EBF2
:106CD000431343409BB2F6E7B9F1030F28BF4FF0CF
:106CE000030909F10402D2B203F00F01A018013A1E
:106CF0000929D2B294BF30313731914541734FEAFF
:106D00001313F1D104EB090300215F733046FFF741
:106D1000DBFC01213046FFF7B8FC014628B970784A
:106D2000B0FA80F04009BDE8F88303786BB1C37A0C
:106D30001B07EED40B22404603F0B9FF0028E8D130
:106D40000135ADB2642DB9D1EDE70120EBE70000CC
:106D50002DE9F04F2DED028B89B00D4605930B7890
:106D6000069013F0700F904605D1002009B0BDECDD
:106D7000028BBDE8F08F069B1B78002BF5D1536882
:106D80000493137899071CBF049B03F10C074FF081
:106D9000000118BF0D2328461DBFB7FBF3F70137CD
:106DA000FFB20127FFF790FC08F10D02002308EE67
:106DB000102A9B461C461E4603939A466A6907930F
:106DC00001212846C2F34F19FFF75FFC079B0028FB
:106DD0006ED16B78002BC8D1059B9A05C5D503F001
:106DE0000303013B012BC0D8039B002C08BF4B467B
:106DF0000393BC42C0F00381BAF1000F40F01B8145
:106E0000039B28465901FFF75FFC0028ADD0013FE6
:106E10005FFA87FA56464FF000090F27002E00F060
:106E2000218100212846FFF730FC044600289CD031
:106E3000AA6892F82430564543F001030CBF46F08F
:106E4000400BB34682F8243080F800B0C77280F857
:106E50000C9008F10D00FFF737FE0BF01F0B60736D
:106E600084F81A9084F81B900BF1FF3B0D22D8F8A0
:106E700008C002FB0BF200230499914240F2E38028
:106E80001CF80210042B5FFA83FE03F1010000F2EC
:106E9000E08004EB4303A3F801100D2802F1010286
:106EA0000346E9D1013EF6B2B8E74FF0010A85E7A3
:106EB0000278E52A00D07AB90399002C08BF494628
:106EC000BC4238BF0134039138BFE4B2002A83D0FA
:106ED000E52A04D1002671E7BC4238BF00242E2ADF
:106EE000F8D0C17A0F295DD13EBB12F040063FF4C5
:106EF00065AF02F01F06437BB3460BF1FF324FF044
:106F00000D0E0EFB02FE049A7245E3D9A2EB0E02AF
:106F100007924FF0000CBCF1040F0CEB0E095FFA66
:106F20008CF214D800EB4C02B2F8012007998C4582
:106F30001BD1002A18BF002640E70BF1FF3B5FFA88
:106F40008BFB5A45C6D1427B9A42D6D0C2E70A2A69
:106F500095BF0CF1FF320CF1010200EB420200EB95
:106F6000420294BFD2889288E0E7FF2AB2D8D2B218
:106F7000A2F141011929D8F8081011F8091098BF99
:106F80002032A1F1410998BFD2B2B9F1190F9CBFCB
:106F90002031C9B291429DD10CF1010CBCF10D0F11
:106FA000B9D10BE70A0795D466B1BBF1010F039382
:106FB0007FF4DBAEFFF788FD039B98427FF4D5AEEC
:106FC000B2460FE018EE101A0B22079303F06FFE83
:106FD000079B00287FF4F2AE98F800A01AF0010A8F
:106FE0007FF463AF059B19053FF5BFAE059B06987F
:106FF000CDF800A04A462946FFF7A9FBB6E60021D6
:107000002846FFF742FB98B96B78002B7FF4ADAEB2
:107010002846FFF713FA00283FF4A7AEAB681B79A8
:10702000012B3FF6E9AE1034E4B2A742F0D8E3E614
:107030000134E4B2DDE641462846FFF735FE00287C
:107040007FF4DEAE91E614BF4FF0FF31002189B22C
:1070500018E7BEF10A0F94BF04EB430304EB4003AF
:1070600099801AE7314628466F69FFF70EFB044600
:1070700000283FF47AAE2022314603F034FE434626
:1070800053F80D2F22605A6862601A8922819B7A18
:10709000A37298F8003003F0180323730F4B1B689A
:1070A0009BB104F10E0104F110009847238A63821A
:1070B0002383E389E382AA6892F8243043F0010332
:1070C000C7F34F1982F8243090E721232374282333
:1070D00063740823A673E373E8E700BF38E5032071
:1070E00013B50446084659B1019103F058FE2368D0
:1070F0000199DB680246204602B0BDE810401847FF
:1071000002B010BD37B50378DA07044620D54368CE
:10711000816800F10C021868019200F084FB019A6A
:10712000054618B90025284603B030BD23789B07D3
:1071300004D4237823F001032370F4E7D4E9013069
:1071400019690144186800F06EFB0028F1D1E9E7E5
:107150000125E8E770B583688B4204460E46154664
:1071600009D0FFF7CFFF08B9002070BD6B070AD523
:1071700000232370A660227805F0030520461543FE
:1071800000F80C5BF1E7636804F10C021868314603
:1071900000F0C0FA0028EBD1E6E7837940690239B4
:1071A000994008447047012970B505460C461646BB
:1071B00002D84FF0FF3070BDC3698B42F9D3C37959
:1071C000202B16D18169022201EBD41100F50C703D
:1071D000FFF7C0FF0028ECD004F07F0450F8243003
:1071E00023F07043EA699A4226BF336001200020F1
:1071F000E1E7102BDDD18369C1F307210222194495
:1072000000F50C70FFF7A6FF0028D2D0E4B230F8EA
:107210001430E7E7012938B50C46154601D800209F
:1072200038BDC3698B42FAD3C379202B0FD1816952
:10723000032201EBD41100F50C70FFF78BFF00283F
:10724000EDD004F07F0440F824500120E8E7102B33
:10725000E5D18369C1F307210322194400F50C70BD
:10726000FFF778FF0028DAD0E4B220F81450ECE7FA
:107270002DE9F341C4688C4205460E46904601D381
:10728000012701E00C460027EB690134A34202D23A
:10729000C7B9EC68F4E7A64214D001AA21462846F3
:1072A000FFF781FF00280DDBEED0019B002BEBD117
:1072B00007B1EC606FF0704221462846FFF7AAFF45
:1072C000074620B90027384602B0BDE8F08116B95C
:1072D000C8F80040F7E7224631462846FFF79AFFF4
:1072E0000028F5D1EEE773B505460C4601AA214604
:1072F0002846FFF758FF061E10DB002221462846CD
:10730000FFF788FF50B1EB68A34224BF04F1FF34BC
:10731000EC60019C002EE9D102B070BD0020FBE7BB
:10732000012370B50022C3604FF0FF330446C271E1
:1073300000F12406806280F82420C362C0F8340281
:1073400080F83022C0F838320D46B9B1042901D98D
:10735000002070BD11463046FFF7FCFE0028F7D034
:1073600000EB051393F8AE315B06F1D105F11B017B
:1073700000EB0111D1F80650002DE9D0002229467A
:107380003046FFF7E7FE0028E2D0B0F80B30B3F547
:10739000007FDDD1037C022BDAD1C389002BD7D04B
:1073A000417B21714B1E63710023A37109260123C8
:1073B000994207D0013ECBD0A2795B000132DBB20B
:1073C000A271F5E7C18A01B9416A2161C3892B44E1
:1073D000A361B0F81120228103EB41032362B0F8CE
:1073E0001110490101F2FF1103EB51236361B0F861
:1073F000132002B9026AE91AA3791144D9404B1C3F
:10740000E36140F6F473994202D80C23E3719FE7DD
:107410004FF6F473994285BFC36A23621023202379
:10742000E371012095E7000070B50E4E0D4614463D
:1074300000F0B4FB3368C01A0B4B984208D900F037
:10744000B5FB0A4B186000F07DFD00F0A7FB306033
:1074500000F0ACFB80B2401BA042D4BF0020012052
:1074600070BD00BF40E50320A086010038E703207F
:1074700038B5057A04464DB9406800F06BFA636888
:107480002946187D02F0D1FC0123237238BD10B5C6
:10749000037A04466BB143680121187D02F0C5FCF4
:1074A0006068FF2100F088FA606800F067FA002346
:1074B000237210BDF8B504460D46164600F076FB63
:1074C00087B2606800F05DFAFF2860720ED14FF459
:1074D0007A7239462046FFF7A7FF0028F1D05523DE
:1074E00020462370FFF7D3FF0020F8BDFE2801D00F
:1074F0005023F5E760683246294600F047FA60728B
:1075000008B16023ECE7606800F03BFA606800F0C7
:1075100038FA0120E9E770B504460E4600F046FB54
:1075200085B2324629462046FFF77EFF30B96068B3
:1075300000F027FAFF28F4D1012070BD0020FCE7FD
:10754000F7B5037A019204460D460BB9FFF790FF99
:1075500025B14FF496712046FFF7DDFF606845F0D6
:10756000400100F029FA032601AFB95D606800F020
:1075700023FA013EF9D2002D60680CBF95218721C6
:1075800000F01AFA606800F0FCF90B25606800F062
:10759000F8F90306607203D5013D15F0FF05F5D13A
:1075A00003B0F0BD70B504460D46164637210022E3
:1075B000FFF7C6FF324629462046BDE87040FFF778
:1075C000BFBF00002DE9F0410025057205708572EE
:1075D0004160044690461E4600F0E8FA41460746E0
:1075E000606800F0BBF96368494A1D720125DA60E2
:1075F0001D822046FFF73CFF63682946187D02F094
:1076000014FC0A256068FF21013D00F0D5F915F052
:10761000FF05F7D163682946187D02F006FC0A25AC
:10762000002211462046FFF78BFF0128804618D024
:10763000013D15F0FF0507D1202320462370FFF7F9
:1076400026FF0020BDE8F0816068FD2100F0B4F95C
:107650004FF40278606800F094F9B8F10108F9D1AC
:10766000DEE74FF4D57208212046FFF769FF0528B1
:1076700014D184F80A800025BFB22A462921204669
:10768000FFF790FF0246D8B14FF4FA623946204620
:10769000FFF7CAFE0028F0D04323CEE70425606838
:1076A00000F06FF9013D15F0FF056072F7D1AA28CF
:1076B00004D10223A3724FF08045DDE72523BCE708
:1076C000A37A022B18D13A212046FFF739FF08B1DF
:1076D0003723B2E7606800F054F900F0C000C0281A
:1076E00004BF0323A372606800F04BF9606800F0E8
:1076F00048F9606800F045F92046FFF7C8FE636866
:107700003079B168B2891A821872D960012099E77C
:1077100090D0030038B5837A032B18BF4902154671
:107720000A4611210446FFF70BFF30B130232370C6
:107730002046FFF7ACFE00250BE029464FF400720F
:107740002046FFF7B7FE05460028F1D02046FFF798
:107750009EFE284638BD10B5837A032B0A4618BF13
:107760004A0212210446FFF7EBFE30B131232046D6
:107770002370FFF78CFE002010BD0120FCE710B540
:1077800000220C210446FFF7DBFE30B128232046FF
:107790002370FFF77CFE002010BD2046FFF777FE28
:1077A0000120F9E7F8B5044616461F46FFF7D3FF58
:1077B00068B10025ABB29F4206EB452109D94FF4D1
:1077C00000722046FFF776FE01350028F2D1002036
:1077D000F8BD2046BDE8F840FFF7D1BF38B50446F4
:1077E0001546406800F0E8F84FF4007260682946DA
:1077F00000F0E6F86068FF2100F0DEF86068FF2125
:1078000000F0DAF8606800F0BCF8607200F01F0069
:10781000052806D0572320462370FFF738FE0020A6
:1078200038BD0120FCE770B5837A032B18BF4902ED
:1078300015460A4618210446FFF782FE064630B177
:10784000322323702046FFF722FE00251FE02A4640
:10785000FE212046FFF7C2FF0028F3D04FF4FA6163
:107860002046FFF758FE054608B95A23E9E7324695
:107870000D212046FFF764FE08B12923E1E7606887
:1078800000F07FF80028F8D12046FFF700FE2846D8
:1078900070BD13B501914FF4FA610446FFF73BFE4A
:1078A000019A30B95B2323702046FFF7F0FD0020DA
:1078B00005E0FC212046FFF791FF0028F4D002B03C
:1078C00010BD10B5837A032B0A4618BF4A0219214E
:1078D0000446FFF735FE30B1332320462370FFF70F
:1078E000D6FD002010BD0120FCE738B54FF4FA6149
:1078F0000446FFF710FE054630B956232370204694
:10790000FFF7C5FD284638BD6068FD2100F054F83A
:10791000F5E7F8B5044616461F46FFF7D2FF70B1EB
:107920000025BD4206EB4521204604D0FFF7B1FFFC
:1079300028B10135F5E7BDE8F840FFF7D6BF20468E
:10794000FFF7A5FD0020F8BD014B01221A7070471A
:1079500044E50320011D006801F06EBB10B504462C
:107960000175006801F02AFB207D012102F04CFA2C
:10797000207D0121BDE8104002F057BA006801F0F7
:1079800041BB0068FF2101F0C5BB000037B51346BD
:10799000074A00920025074C006825700A462946D0
:1079A00001F0BEFB2378002BFCD0002003B030BDDB
:1079B00049790D0044E50320006801F0ABBB0000ED
:1079C00037B51346064A00920025064C006825701C
:1079D0002A4601F0A5FB2378002BFCD003B030BD74
:1079E00049790D0044E5032010B5064B03600446B9
:1079F000006D08B100F0AAF82046FDF7E1FC204632
:107A000010BD00BF98DA0D0010B50446FFF7ECFF7B
:107A10002046702102F072FA204610BD30B585B0C4
:107A200004460D4602F046FA104A1149CDE90121FB
:107A30004FF0FF3280210346009220462022FDF7BE
:107A400045FD0C4B23600023C4E9143504F15800B4
:107A5000FEF734F904F16000FEF730F904F1680034
:107A6000FEF72CF9204605B030BD00BF801A060095
:107A7000A086010098DA0D0013B50446503000F0DE
:107A80005DF8636DD90705D50222042104F1580081
:107A9000FEF728F9636D9A0705D50022032104F14A
:107AA0006000FEF71FF9636D5B0705D502221146E2
:107AB00004F16800FEF716F9012300933C2202212D
:107AC0002046FDF703FE02B010BD000008B5024BD2
:107AD0001B685B6C019308BD7402030008B5024B80
:107AE0001B68DB68019308BD4802030008B5024B20
:107AF0001B68DB69019308BD4802030008B5024B0F
:107B00001B681B6A019308BD4802030008B5024BBD
:107B10001B685B6A019308BD4802030008B5024B6D
:107B20001B689B6A019308BD4802030008B5024B1D
:107B30001B68DB6A019308BD4802030008B5024BCD
:107B40001B681B6B019308BD4802030008B5024B7C
:107B50001B685B6B019308BD4802030008B5024B2C
:107B60001B685B6C019308BD4802030008B5024B1B
:107B70001B681B6F019308BD4802030008B5024B48
:107B80001B685B68019308BD1802030008B5024B2F
:107B90001B68DB68019308BD1802030008B5024B9F
:107BA0001B681B69019308BD1802030008B5024B4E
:107BB0001B685B69019308BD1802030008B5024BFE
:107BC0001B689B6D019308BD1802030008B5024BAA
:107BD0001B685B6E019308BD1802030008B5024BD9
:107BE0001B689B68019308BD2C02030008B5024B7B
:107BF0001B68DB68019308BD2C02030008B5024B2B
:107C00001B681B69019308BD2C02030008B5024BD9
:107C10001B685B69019308BD2C02030008B5024B89
:107C20001B681B68019308BD2802030008B5024BBE
:107C30001B68DB68019308BD2802030008B5024BEE
:107C40001B689B69019308BD2802030008B5024B1D
:107C50001B68DB69019308BD2802030008B5024BCD
:107C60001B681B6A019308BD2802030008B5024B7C
:107C70001B685B6A019308BD2802030008B5024B2C
:107C80001B689B6A019308BD2802030008B5024BDC
:107C90001B68DB6A019308BD2802030008B5024B8C
:107CA0001B681B6B019308BD2802030008B5024B3B
:107CB0001B685B6B019308BD2802030008B5024BEB
:107CC0001B681B6C019308BD2802030008B5024B1A
:107CD0001B685B69019308BD6402030008B5024B91
:107CE0001B689B68019308BD6802030008B5024B3E
:107CF0001B68DB68019308BD6802030008B5024BEE
:107D00001B681B68019308BD3002030008B5024BD5
:107D10001B68DB68019308BD3002030008B5024B05
:107D20001B685B69019308BD3002030008B5024B74
:107D30001B68DB69019308BD3002030008B5024BE4
:107D40001B681B6A019308BD3002030008B5024B93
:107D50001B685B6A019308BD3002030008B5024B43
:107D60001B689B6A019308BD3002030008B5024BF3
:107D70001B689B6B019308BD3002030008B5024BE2
:107D80001B68DB6B019308BD3002030008B5024B92
:107D90001B681B6C019308BD3002030008B5024B41
:107DA0001B685B6C019308BD3002030008B5024BF1
:107DB0001B681B68019308BD3C02030008B5024B19
:107DC0001B68DB68019308BD3C02030008B5024B49
:107DD0001B681B69019308BD3C02030008B5024BF8
:107DE0001B685B69019308BD3C02030008B5024BA8
:107DF0001B689B69019308BD3C02030008B5024B58
:107E00001B68DB69019308BD3C02030008B5024B07
:107E10001B681B6A019308BD3C02030008B5024BB6
:107E20001B689B6A019308BD3C02030008B5024B26
:107E30001B68DB6A019308BD3C02030008B5024BD6
:107E40001B681B68019308BD4C02030008B5024B78
:107E50001B685B68019308BD4C02030008B5024B28
:107E60001B681B69019308BD4C02030008B5024B57
:107E70001B685B69019308BD4C02030008B5024B07
:107E80001B689B69019308BD4C02030008B5024BB7
:107E90001B68DB69019308BD4C02030008B5024B67
:107EA0001B681B6A019308BD4C02030008B5024B16
:107EB0001B685B6B019308BD6002030008B5024BB1
:107EC0001B681B68019308BD2002030008B5024B24
:107ED0001B685B68019308BD2002030008B5024BD4
:107EE0001B685B69019308BD2002030008B5024BC3
:107EF0001B68DB6C019308BD2002030008B5024B30
:107F00001B685B6D019308BD2002030008B5024B9E
:107F10001B689B6D019308BD2002030008B5034B4D
:107F20001B68D3F88830019308BD000020020300CD
:107F300008B5034B1B68D3F89430019308BD0000CB
:107F40002002030008B5024B1B689B68019308BD23
:107F50004402030008B5024B1B685B69019308BD2E
:107F60004402030008B5024B1B68DB69019308BD9E
:107F70004402030008B5024B1B681B6A019308BD4D
:107F80004402030008B5024B1B681B6B019308BD3C
:107F90004402030008B5024B1B68DB6B019308BD6C
:107FA0004402030008B5024B1B685B68019308BDDF
:107FB0004002030008B5024B1B689B68019308BD93
:107FC0004002030008B5024B1B68DB68019308BD43
:107FD0004002030008B5024B1B681B69019308BDF2
:107FE0004002030008B5024B1B685B69019308BDA2
:107FF0004002030008B5024B1B689B69019308BD52
:108000004002030008B5024B1B68DB69019308BD01
:108010004002030008B5024B1B681B6A019308BDB0
:108020004002030008B5024B1B681B6B019308BD9F
:108030004002030008B5024B1B685B6B019308BD4F
:108040004002030008B5024B1B681B6C019308BD7E
:108050004002030008B5024B1B685B6C019308BD2E
:108060004002030008B5024B1B681B68019308BD62
:108070001C02030008B5024B1B685B68019308BD36
:108080001C02030008B5024B1B689B68019308BDE6
:108090001C02030008B5024B1B681B69019308BD55
:1080A0001C02030008B5024B1B68DB69019308BD85
:1080B0001C02030008B5024B1B685B6A019308BDF4
:1080C0001C02030008B5024B1B68DB6A019308BD64
:1080D0001C02030008B5024B1B681B6B019308BD13
:1080E0001C02030008B5024B1B685B6C019308BDC2
:1080F0001C02030008B5024B1B689B6C019308BD72
:108100001C02030008B5024B1B68DB6C019308BD21
:108110001C0203000021FFF7E1BE10B5836804468E
:108120000BB901F0EFFEC3689847A3681BB10322A7
:1081300021462046984720461021BDE8104001F016
:10814000DDBE0B68036013B15A6801325A60704794
:10815000024800230360FFF701BD00BF48E503208C
:10816000002240681146FFF735BF002240681146E3
:10817000FFF750BF002240681146FFF75BBF406821
:108180000022FFF74FBF4068002281F00101FFF796
:1081900039BF002340681A461946FFF72BBF00235A
:1081A00040681A461946FFF71DBF00224068114675
:1081B000FFF700BF406800220221FFF703BF002342
:1081C00040681A46FFF7EEBEF0B51B4B0360002572
:1081D0000F4630331826C0E9025589B04360324655
:1081E00029460446103002F07EFD78682A4629466A
:1081F000FFF7F0FE18B9A060204609B0F0BD29468F
:10820000324602A8CDE9005502F06DFD02A968468C
:10821000ADF80860FFF75AFC10B10123A360EBE74B
:10822000009B019AA360E2600BB90223A36002A93C
:10823000204600F0C0F8DFE72CDB0D00084B10B53E
:10824000282422461846002102F04DFD054B0480EB
:108250004FF0FF32426004225A60034A1A6010BD98
:1082600054E503204CE50320F0DA0D007047007D53
:108270007047037D4BB18369B3F1004F05D0006AAD
:10828000B0F1004018BF012070470020704703681C
:108290001B6A184710B52821044601F02FFE20461E
:1082A00010BD0000037D7BB1C369002B0CDB07EE22
:1082B000903A9FED077AF8EEE77A87EE870ADFEDCE
:1082C000057A20EE270A7047BFEE000A704700BF0C
:1082D00000FF7F470000C842037D63B18369B3F1AB
:1082E000004F08D007EE903A9FED047AF8EEE77A57
:1082F00087EE870A70479FED020A70470000C84268
:1083000000000000037D7BB1436A002B0CDB07EE0D
:10831000903A9FED077AF8EEE77A87EE870ADFED6D
:10832000057A20EE270A7047BFEE000A704700BFAB
:1083300000FF7F470000C842037D63B1036AB3F1C9
:10834000004F08D007EE903A9FED047AF8EEE77AF6
:1083500087EE870A70479FED020A70470000C84207
:108360000000000070B50C1E06460ADA2D2100F050
:10837000B5FC614205460A22304600F0C8FC28449C
:1083800070BD21460025F6E770B50C4605468168AC
:108390002046FFF7E7FF2C210646204600F09EFC12
:1083A000E96806442046FFF7DDFF304470BDA0F1C8
:1083B0000400FFF7E9BF30B50D4600F110040FCD02
:1083C0000FC495E8030084E80300012030BD704726
:1083D0000020704710B51021044601F08FFD2046A3
:1083E00010BD08B5FFF7F6FF08BD30B500224FF607
:1083F0009C74026084808D888C800C688580046009
:108400000A6030BD10B504460068FFF733FE204611
:1084100010BD38B5C468F4B12378022B03D104F140
:108420000C00FFF7EFFF656835B12846FBF70AFF40
:108430001021284601F062FDA56835B12846FBF7FA
:1084400001FF1021284601F059FD20461421BDE806
:10845000384001F053BD38BD73B50E46044656F89A
:10846000043B00930D4601A83146FFF76AFE019ACE
:10847000009B6260236001A8002301930093FBF737
:108480006BFF3046FBF768FF2846082101F036FDF8
:10849000204602B070BD13B50B460246D0E900017C
:1084A0006C4684E8030093E8030082E8030094E844
:1084B000030083E8030002B010BD826810B50AB95A
:1084C00001F020FDBDE81040C368184708B50068FA
:1084D00000F11001FFF7F1FF08BD826810B50AB97D
:1084E00001F010FDBDE81040C368184708B50068EA
:1084F00000F11001FFF7F1FF08BD000038B50023BF
:108500000446036010200D46FBF7C5FD28B101238A
:10851000C0E90133024B0360C5602060204638BDCE
:1085200068DB0D0038B5002383608B6804460D4678
:108530002BB102229847EB68E360AB68A36020464A
:1085400038BD0000F0B589B004686846FFF74DFFFC
:108550004FF00203D4E84F2F002A03D1C4E8413F73
:108560000029F7D125D104F10C0569462846FFF70B
:108570003CFFBFF35B8F01236370002004F108030D
:10858000BFF35B8F53E8006F43E80002002AF9D184
:10859000BFF35B8F6EB1FFF7A9FC78B12946304677
:1085A000FFF78BFF3046FBF74DFE1021304601F000
:1085B000A5FC6846FFF726FF09B0F0BD314602A8CA
:1085C000FFF7B0FFE068B4F9105008B102F0CAFB41
:1085D00006901020ADF81C50FBF75DFD0546E8B194
:1085E000002787601820FBF756FD044688B1014636
:1085F000876002A8FFF74FFF049BA268A360059B5A
:10860000049206A9E268E36004F110000592FFF706
:10861000ECFE084BEB60084B2C60AB6006A8FFF744
:10862000F1FE02A8FBF70EFE002229460348FFF7E1
:1086300065FCB7E7CD840D0065870D001B810D003B
:108640002DE9F0478AB005469DF848900C4617463C
:108650009846FFF77FFC07AE824638BB4FF62E7375
:10866000059005A93046ADF81830FFF7BEFE14207E
:10867000FBF711FD044648B1022303700123C0E952
:1086800001AA437031460C30FFF7AFFE2846214661
:1086900040F8044BFFF732FF3046FFF7B3FE05A862
:1086A000FFF7B0FE28460AB0BDE8F0870C234FF074
:1086B000000A1420CDE908AA0793FBF7ECFC014659
:1086C00028B1C0E901AA80F800A080F801A004A8A0
:1086D0000391FFF713FF224B08930820FBF7DBFC05
:1086E000824628B1039B40F8043B04A9FFF729FD0B
:1086F00000965FFA89F3424639462046CDF824A019
:10870000FFF738FCB8B9039B5B7803F0FF0293B91D
:108710004FF69C7305A903A80592ADF81830FFF732
:1087200011FF05A8FFF76EFE05A80999FFF794FE53
:1087300006A8FBF711FE039B059304A906A8FFF703
:1087400000FD059B069A2B606A60002306A806932D
:108750000593FBF701FE04A8FBF7FEFDA2E700BFAF
:1087600029880D00022AF8B5054607D0032A18D03B
:10877000012A01D10B6803600020F8BD18200E68A3
:10878000FBF789FC044650B13146FFF7CBFE306958
:10879000B6F9147008B102F0E5FA2061A7822C60E6
:1087A000EAE70468002CE7D004F11000FFF72AFE86
:1087B0002046FBF747FD1821204601F09FFBDBE731
:1087C00038B5002383608B6804460D462BB1022226
:1087D0009847EB68E360AB68A360204638BD022A87
:1087E00070B5044607D0032A12D0012A01D10B68C4
:1087F0000360002070BD14200E68FBF74CFC05469A
:1088000020B13146FFF7DCFF337C2B742560F0E7A5
:108810000468002CEDD02046FBF714FD14212046FF
:1088200001F06CFBE5E70000F0B589B004460D46A9
:1088300001A81146FFF710FEA4B124B21DB12846CD
:1088400002F090FA054601A803A90395ADF810407F
:10885000FFF778FE03A8FFF7D5FD02A8FBF77CFD24
:1088600009B0F0BD019D0123D5E84F2F002A03D1A7
:10887000C5E8413F0029F7D1EFD12B73BFF35B8FE0
:108880006B702B1DBFF35B8F53E8006F43E8004212
:10889000002AF9D1BFF35B8F002EDED02046FFF710
:1088A00025FB074660B105F10C013046FFF715FEC8
:1088B0003046FBF7C7FC1021304601F01FFBCCE728
:1088C000314603A8FFF77CFF2B7B8DF81C3010206E
:1088D000FBF7E1FB0546D0B187601420FBF7DBFB1B
:1088E000044678B18760014603A8FFF7D4FD059BD5
:1088F000A268A360069B0592E268E3609DF81C30C5
:1089000006922374064BEB60064B2C60AB6003A809
:10891000FBF798FC002229460348FFF7EFFAC7E768
:10892000ED840D00DF870D001B810D0000224068E3
:108930001146FFF76FBB002240681146FFF77ABB74
:1089400040680022FFF76EBB4068002281F0010101
:10895000FFF758BB002340681A461946FFF74ABB89
:10896000002340681A461946FFF73CBB00224068C6
:108970001146FFF72FBB002240681146FFF71ABBD4
:10898000406800220221FFF71DBB002340681A4601
:10899000FFF708BB024B03225A60024A1A60704775
:1089A0007CE5032084DB0D007047F8B506461546CC
:1089B0000C468F18BC4206D0336814F8011B9B6824
:1089C00030469847F6E72846F8BD007C0022FFF7BE
:1089D00045B9007C0021FFF749B9007C0021FFF771
:1089E0004DB9007C0021FFF751B9007C0021FFF751
:1089F00055B910B51421044601F080FA204610BD87
:108A000010B54FF47A73044608460021C4E90113F7
:108A1000034B236020741146FFF750F9204610BD28
:108A2000C0DB0D00007C0022FFF7F8B80023007CBB
:108A30001A461946FFF7FAB8007C0022FFF7FEB885
:108A4000C9B2FFF7F9BF007C0022FFF7FFB8012190
:108A5000FFF7F9BF704710B51821044601F04EFA30
:108A6000204610BDF0B5037D062B8DB00E4600F1FB
:108A700004074FF0000412D000F1080515F8011D9D
:108A80000A22304600F043F9AF42044419D0002CCA
:108A9000F4D02E21304600F021F90444EEE72F23D4
:108AA0006A4639460A208DF80040FFF70FF96846FC
:108AB00002F075F933680246DB686946304698472C
:108AC000044620460DB0F0BD10B5054B04461122FA
:108AD00040F8043B002102F006F9204610BD00BF1B
:108AE000E8DB0D000346074A10B543F8042B01F1FB
:108AF000100251F8044B43F8044B9142F9D10A7823
:108B00001A7010BDE8DB0D0010B59DF8084044EA6E
:108B1000032343EA024242EA0161042341600375F0
:108B200010BD13B5CB7800938B784A780978FFF79E
:108B3000EBFF02B010BD0000014B024A1A60704703
:108B400084E50320F4DB0D00002340681A46FFF79C
:108B500029BA406800220221FFF734BA0022406897
:108B60001146FFF727BA002240681146FFF732BAD4
:108B7000002340681A461946FFF734BA00234068BC
:108B80001A461946FFF736BA40680021FFF75ABA6D
:108B900040680021FFF75EBA4068002281F00101C1
:108BA000FFF730BA40680022FFF73CBA0022406865
:108BB0001146FFF73FBA002240681146FFF72ABA74
:108BC0002DE9F043002495B016460D460746FFF701
:108BD0007BFF214618220EA8009402F084F840235F
:108BE000CDE90C3421466B460CAA3046FFF77EF8DF
:108BF0000446002846D1024601216868FFF7EAF9D9
:108C00000221804622466868FFF7E4F9009E81460B
:108C10002146002E36D0002934D17368022B03D0B0
:108C20000A2B0BD0F669F4E7B8F1000F04D0716994
:108C300038460431FFF775FF4146F3E7B9F1000FFD
:108C400001D14946EEE77469102201A802F04BF801
:108C500006238DF8143001AD04F1080318341868A8
:108C600059682A4603C20833A3421546F7D101A921
:108C700006A807ADFFF736FF0FCD3C1D0FC42B68CC
:108C80002370DEE70098FFF729F8384615B0BDE8F5
:108C9000F0830000024B034A1A6000225A607047BA
:108CA00088E5032000DC0D00F8B506460D468F1858
:108CB0000024BD420CD0336815F8011B9B68304678
:108CC0009847031E01DB1C44F3E7002C08BF1C4639
:108CD0002046F8BD08B5FEF703FA08BD03689B6897
:108CE000184738B50D210546FFF7F8FF0A2104465D
:108CF0002846FFF7F3FF204438BD38B50546FEF798
:108D0000EFF904462846FFF7ECFF204438BD30B5A4
:108D10008BB000238DF82430012A98BF0A2209ACB9
:108D20000D46B1FBF2F101FB125303F0FF03092BD7
:108D300094BF30333733DBB2AA4204F8013DEFD998
:108D40002146FEF7CDF90BB030BD00002DE9F74FFD
:108D500055EC104B06460F4610EE102A10EE100A86
:108D60002B46294601F028FD40B153493046FEF715
:108D7000B7F98246504603B0BDE8F08F25F00049B0
:108D80004E4B4FF0FF322046494601F015FD48B9E1
:108D90004A4B4FF0FF322046494601F0EFFC08B93C
:108DA0004749E3E7474B4FF060422046294601F030
:108DB000F9FC08B14449D9E7444B4FF060422046E2
:108DC000294601F0D1FC0028F4D1002200232046DE
:108DD000294601F0C9FCD0B12D213046FFF77EFFB6
:108DE00005F1004382461D463949DFF8EC904FF00B
:108DF000000B00204FF000085FFA8BF39F4208D968
:108E000042464B4601F068FB0BF1010BF4E782464A
:108E1000EAE722462B4601F07FF80D46044601F0B2
:108E200009FD804601F0B4F902460B46204629466A
:108E300001F070F80A2204460D4630464146FFF71D
:108E400066FF824427B123493046FEF749F9824440
:108E5000DFF884904FF00008013FFFB2FF2F89D068
:108E600042464B462046294601F00CFA04460D4680
:108E700001F0B8FCB0F1000B1ADA2D213046FFF7F3
:108E80002DFFCBF1000103460A2230460193FFF784
:108E90003EFF019B18448244584601F089F902467E
:108EA0000B462046294601F035F804460D46D3E727
:108EB00059460023E8E700BF34DC0D00FFFFEF7FD9
:108EC00038DC0D00FFFFEF413CDC0D00FFFFEFC180
:108ED0000000E03F5BCE0D000000244038B50446A2
:108EE00010EE100ACDB201F075F941EC100B2946D5
:108EF0002046BDE83840FFF729BF38B5C9B205465E
:108F0000FFF724FF04462846FFF7EBFE204438BD58
:108F100038B5044610EE100A0D4601F05BF941EC3D
:108F2000100B29462046BDE83840FFF7E6BF2DE983
:108F3000F04186B000AF05460E46381D1421144698
:108F40003B60FFF7B7F813280ED8391D2846FEF707
:108F5000C7F804461EB12846FFF7C3FE0444204666
:108F60001837BD46BDE8F08100F1080323F0070380
:108F7000E846ADEB030D2246411C3B686846FFF70F
:108F800099F869462846FEF7ABF80446C546E1E77E
:108F9000014B00229A60704790E503200021FEF704
:108FA000F5BE0021FEF7FABE10B504460846217052
:108FB000FEF7BCFE00236360204610BD10B50446DA
:108FC0000078FFF7EBFF48B920784FF6FF71FEF706
:108FD00095FE2078BDE81040FFF7E3BF10BD13B544
:108FE000044600780191FFF7D9FF019940B9207834
:108FF000FEF78CFE207802B0BDE81040FFF7D1BF2D
:1090000002B010BD0078FFF7CCBF0000400830B5BB
:109010001860002418688842E5B206D90134082C8B
:1090200002D040081860F5E70725024B5B5D13701E
:1090300030BD00BF40DC0D002DE9F04306468FB087
:1090400000780C46FFF7AAFF00281BDB35781422B6
:10905000002109A801F047FE0B23002209A9284698
:10906000ADF82430FEF772FE9DF82D3013B19DF857
:109070002C5055B10027B946B846012523795DB17A
:10908000C3B100200FB0BDE8F083DDF830809DF85B
:1090900034909DF83570F1E7002B35D1A368434536
:1090A00008D18DF820908DF82170BDF82020A3897B
:1090B0009A42E6D00023A1688DF80F300A9804ABDD
:1090C0000DF10F02FFF7A2FF217985B989B9A368D5
:1090D00043450ED38DF820908DF82170BDF82020E7
:1090E000A3899A4205D1049B434502D1C9E70029CF
:1090F000F9D100230193637B00939DF80F20237B1C
:109100003078FEF73BFEBCE7CDE900552B462A46FA
:109110000121F5E708B50078FEF700FEC0B208BDF2
:1091200030B587B004460A9D00950078FEF716FE1C
:109130003DB9207802A9FEF719FE9DF81430DB072F
:10914000F7D407B030BD00002DE9F04757EC106BA5
:1091500080460C4610EE100A00220023394601F02A
:1091600003FB28B107F100431F462D2304F8013B00
:1091700000234FF001090A22D9B2884503D902FB26
:1091800009F90133F8E7484601F012F832463B4648
:1091900001F078F806460F4601F0D4FB05468A46F2
:1091A00001F03AF802460B463046394600F0B2FE6E
:1091B000134B002201F0ECFA10B101354AF1000A1C
:1091C0004A462846D317514601F0A4FB0123154611
:1091D00021460A2200F0F7FCB8F1000F0DD020461E
:1091E00001F0DDFD2E23211823540A224346284690
:1091F0000131BDE8F04700F0E6BCBDE8F08700BFF4
:109200000000E03F10B504460068FEF733FF20463B
:1092100010BD10B50446006808B1FEF72BFF00230F
:10922000C4E90133236010BD38B504460D4600681B
:109230000131FEF727FF10B1C4E90005012038BD58
:1092400010B50368044623B143688B4201D3012063
:1092500010BD2046FFF7E8FF0028F9D0A368002BD7
:10926000F5D122681370F2E737B50D461146019229
:109270000446FFF7E5FF019A28B92046FFF7C9FF2A
:10928000204603B030BDA2602946206801F01DFDD4
:109290002268A3680021D154F2E7002313B5C0E986
:1092A000003304468360037341B10846019101F025
:1092B00076FD019902462046FFF7D6FF204602B010
:1092C00010BD38B5054600680C4668B16A688B6801
:1092D0009A4207D3096801F03DFDA368AB60002303
:1092E000A36038BDFEF7C6FE23682B6063686B6021
:1092F000A368AB600023C4E90033F1E7884210B5EE
:10930000044605D00B682BB18A681946FFF7ACFFFD
:10931000204610BDFFF77DFFFAE710B50023044695
:10932000C0E9003383600373FFF7E8FF204610BDF8
:10933000884210B5044601D0FFF7C3FF204610BD98
:1093400013B5044659B10846019101F028FD019971
:1093500002462046FFF788FF204602B010BDFFF707
:1093600058FFF9E713B500238DF80410C0E9003366
:109370008360037301A904468DF80530FFF7E0FF11
:10938000204602B010BD1FB504460023C4E90033D7
:10939000A3602373084601A900F056FC01A92046EA
:1093A000FFF7CEFF204604B010BD30B504460023C1
:1093B0008BB0C4E90033A360237310EE100ACDB262
:1093C00000F008FF41EC100B01A92846FFF7BCFE96
:1093D00001A92046FFF7B4FF20460BB030BD70B5A1
:1093E00005460E4609B9002070BD6AB18468144470
:1093F0002146FFF725FF0028F5D02868AB683146E5
:10940000184401F0A7FCAC600120EDE713B50A2277
:1094100004460846694600F001FC684601F0BFFCBE
:10942000694602462046FFF7DAFF02B010BD10B5CC
:10943000044686B010EE100A00F0CCFE41EC100B92
:1094400001A90620FFF780FE01A801F0A8FC01A9F0
:1094500002462046FFF7C3FF06B010BD10B58A686C
:1094600009680446FFF7BBFF10B92046FFF7D1FE9D
:10947000204610BD13B5044629B92046FFF7C9FEA2
:10948000204602B010BD0846019101F088FC019908
:1094900002462046FFF7A3FF0028EED0F0E710B504
:1094A0000446FFF7B3FF10B92046FFF7B2FE20468F
:1094B00010BD10B50446FFF7BAFF10B92046FFF7FC
:1094C000A8FE204610BD08B582683AB921B10878D7
:1094D000B0FA80F0400900E0012008BD006809B939
:1094E0000078F5E701F02CFCF2E710B5134684682C
:1094F0008A68A41A9C420AD3006838B1096841B14D
:10950000184401F054FCB0FA80F0400910BD00206E
:10951000FCE70846FAE782688B689A4202D3002289
:10952000FFF7E3BF0020704783688B4203D90068D0
:1095300010B1405C704700207047FFF7F5BF10B5D1
:109540008368934207D904680968A01801F054FCA5
:1095500008B1001B10BD4FF0FF30FBE72DE9F041D3
:1095600015468A680E46CAB18368BBB19A4215D8BF
:109570000768AB4298BF03F1FF3538464FF0FF3420
:1095800007EB050840450BD8316801F035FC38B1D0
:10959000C31BAB4298BF1C460130F3E74FF0FF34CA
:1095A0002046BDE8F08182688B68D21AFFF7D6BFEB
:1095B000F8B59A420F461D460C4988BF134614461B
:1095C000064684BF2C461D46FFF767FEBA68A242D6
:1095D0000AD33968AA4294BFC4EB0202C4EB050265
:1095E00021443046FFF740FE3046F8BDF4DC0D0064
:1095F00010B504468B68FFF7DBFF204610BD0068FE
:1096000008B101F050BB704708B5006840B101F0E7
:1096100047FB51EC100B01F02DF900EE100A08BDCC
:109620009FED010AFBE700BF00000000054B02228E
:109630001A60054B054A9A6000201860988098715E
:10964000FEF744BCACE50320A0E503200000FFFFCB
:109650002DE9F041154ADFF86080D2E90032C018E8
:1096600042EB0101124AD2E90032C61841EB02076F
:10967000D8E90023BB4208BFB2428CB013D003A983
:109680006846CDE90067FEF73DFD089B094D03F2F2
:109690006C7303AC08930FCC0FC50FCC0FC5C8E992
:1096A000006723682B600CB0BDE8F081E8E503207B
:1096B000E0E50320B8E50320F0E5032008B500202D
:1096C000FEF760FC28B1FEF745FC80F00100C0B257
:1096D00008BD0120FCE7000008B5FFF7B9FF024B09
:1096E0001869013008BD00BFB8E5032030B5044655
:1096F0001848D0E90010521840EB03031648D0E98F
:109700000010521893B040EB0303CDE9002324224C
:109710000DEB0200002101F0E6FA002509A96846D8
:10972000FEF7F0FC1622294603A8029501F0DBFAA9
:1097300002A909A801F088FA02A801F030FB12ABD7
:10974000184402A900F8415C2046FFF7A6FD204618
:1097500013B030BDE8E50320E0E503202DE9F04F2C
:10976000A5B00746884614A811463F221D4601F0C1
:1097700030FB002314A88DF88F3001F010FB044655
:109780005DBB2A4903A801F0E5FA14AE002504F1F7
:10979000FF3BAB4536D9B14605F1010A19F8013B4B
:1097A000252B17D173787A2B14D103A801F0F7FA7F
:1097B00014AB044628181844ABEB0502B11C01F0A9
:1097C00084FA224603A9304601F07FFA14A801F07A
:1097D000E6FA04464E465546D9E73C2195FBF1F39F
:1097E000002BB8BF5B42B3FBF1F201FB12330093D5
:1097F0000F4A4FF46163102103A895FBF3F3FEF7C2
:1098000051FCC2E700212E2208A8079101F06BFA53
:10981000434614AA322107A8FEF76CFC07A9384674
:10982000FFF73BFD384625B0BDE8F08F48DC0D0062
:109830004ADC0D00F0B58DB0CDE90023129D044641
:1098400015B9194B1D682DB1184B2846196801F040
:1098500077FA38B9DDE900232046FFF747FF2046B5
:109860000DB0F0BD124E0099124FD6E900325B18D0
:10987000019941EB0202D7E900011B1841EB0202FA
:10988000CDE900320021242203A801F02CFA03A91B
:109890006846FEF737FC32683B6803A9134420464C
:1098A0002A46FFF75BFFDAE7B4E50320E0DC03209C
:1098B000E8E50320E0E5032010B50020FEF77EF97F
:1098C0000446A0B9FEF7FAFA012810D12046FEF7A7
:1098D0001DFB60B9FFF7F2FE10B9FEF733FBF9E7A5
:1098E000FFF7ECFEBDE810400020FEF767B9204608
:1098F00010BD1FB5FFF7E0FF10220021684601F000
:10990000F2F900216846FEF761F9009805B05DF8AC
:1099100004FB000008B5FFF7ECFFC117FFF798FE46
:10992000014B986808BD00BFB8E5032008B5FFF7F4
:10993000E0FFC117FFF78CFE014B586808BD00BF60
:10994000B8E5032008B5FFF7D4FFC117FFF780FE85
:10995000014BD86808BD00BFB8E5032008B5FFF784
:10996000C8FFBDE80840C117FFF7B6BE08B5FFF74E
:10997000C0FFC117FFF76CFE014B586908BD00BF5F
:10998000B8E50320024B1A68024B1A60704700BF0B
:10999000E0DC0320B4E50320704741747047704752
:1099A00008B5007CFEF73AFA20EAE07008BD08B579
:1099B000007CFEF70BFA20EAE07008BD08B5007CD9
:1099C000FEF714FA40EAE07008BD08B5007CFEF727
:1099D00005FA40EAE07008BD007CFEF70FBA37B523
:1099E000457C04462DB1207C03B0BDE83040FEF735
:1099F000E5B9007C0191FEF711FA00280199F2DC2B
:109A0000284603B030BD10B51421044600F076FAA4
:109A1000204610BD10B54FF0000C04460846114614
:109A20004FF47A72C4E901C2044A22600122207410
:109A300062741A46FEF7BAF9204610BD7CDC0D00B0
:109A4000007C0023FEF7F2B90022FFF7F9BF000007
:109A500013B50D4C2178BFF35B8F11F0010110D1CC
:109A600020460191FAF728FB019950B1074B084AAB
:109A70000848FFF7CFFF2046FAF723FB064801F01E
:109A800009F9044802B010BDF8E5032080E6032080
:109A9000FCE5032004E703209F990D004174704703
:109AA0007047704708B50021007CFEF7E7F940EAEF
:109AB000E07008BD08B50121007CFEF7DFF940EA3F
:109AC000E07008BD08B5007CFEF7D0F920EAE07030
:109AD00008BD08B5007CFEF7C1F920EAE07008BDBA
